{
  "_format": "hh-sol-artifact-1",
  "contractName": "Sudoku",
  "sourceName": "contracts/Sudoku.sol",
  "abi": [
    {
      "inputs": [
        {
          "internalType": "address",
          "name": "_verifierAddr",
          "type": "address"
        }
      ],
      "stateMutability": "nonpayable",
      "type": "constructor"
    },
    {
      "inputs": [
        {
          "internalType": "string",
          "name": "stringTime",
          "type": "string"
        }
      ],
      "name": "generateSudokuBoard",
      "outputs": [
        {
          "internalType": "uint8[9][9]",
          "name": "",
          "type": "uint8[9][9]"
        }
      ],
      "stateMutability": "view",
      "type": "function"
    },
    {
      "inputs": [],
      "name": "verifierAddr",
      "outputs": [
        {
          "internalType": "address",
          "name": "",
          "type": "address"
        }
      ],
      "stateMutability": "view",
      "type": "function"
    },
    {
      "inputs": [
        {
          "internalType": "uint256[2]",
          "name": "a",
          "type": "uint256[2]"
        },
        {
          "internalType": "uint256[2][2]",
          "name": "b",
          "type": "uint256[2][2]"
        },
        {
          "internalType": "uint256[2]",
          "name": "c",
          "type": "uint256[2]"
        },
        {
          "internalType": "uint256[81]",
          "name": "input",
          "type": "uint256[81]"
        }
      ],
      "name": "verifyProof",
      "outputs": [
        {
          "internalType": "bool",
          "name": "",
          "type": "bool"
        }
      ],
      "stateMutability": "view",
      "type": "function"
    },
    {
      "inputs": [
        {
          "internalType": "uint256[2]",
          "name": "a",
          "type": "uint256[2]"
        },
        {
          "internalType": "uint256[2][2]",
          "name": "b",
          "type": "uint256[2][2]"
        },
        {
          "internalType": "uint256[2]",
          "name": "c",
          "type": "uint256[2]"
        },
        {
          "internalType": "uint256[81]",
          "name": "input",
          "type": "uint256[81]"
        }
      ],
      "name": "verifySudoku",
      "outputs": [
        {
          "internalType": "bool",
          "name": "",
          "type": "bool"
        }
      ],
      "stateMutability": "view",
      "type": "function"
    }
  ],
  "bytecode": "0x60806040526040518060600160405280604051806101200160405280604051806101200160405280600160ff168152602001600260ff168152602001600760ff168152602001600560ff168152602001600860ff168152602001600460ff168152602001600660ff168152602001600960ff168152602001600360ff168152508152602001604051806101200160405280600860ff168152602001600560ff168152602001600660ff168152602001600360ff168152602001600760ff168152602001600960ff168152602001600160ff168152602001600260ff168152602001600460ff168152508152602001604051806101200160405280600360ff168152602001600460ff168152602001600960ff168152602001600660ff168152602001600260ff168152602001600160ff168152602001600860ff168152602001600760ff168152602001600560ff168152508152602001604051806101200160405280600460ff168152602001600760ff168152602001600160ff168152602001600960ff168152602001600560ff168152602001600860ff168152602001600260ff168152602001600360ff168152602001600660ff168152508152602001604051806101200160405280600260ff168152602001600660ff168152602001600860ff168152602001600760ff168152602001600160ff168152602001600360ff168152602001600560ff168152602001600460ff168152602001600960ff168152508152602001604051806101200160405280600960ff168152602001600360ff168152602001600560ff168152602001600460ff168152602001600660ff168152602001600260ff168152602001600760ff168152602001600160ff168152602001600860ff168152508152602001604051806101200160405280600560ff168152602001600860ff168152602001600360ff168152602001600260ff168152602001600960ff168152602001600760ff168152602001600460ff168152602001600660ff168152602001600160ff168152508152602001604051806101200160405280600760ff168152602001600160ff168152602001600460ff168152602001600860ff168152602001600360ff168152602001600660ff168152602001600960ff168152602001600560ff168152602001600260ff168152508152602001604051806101200160405280600660ff168152602001600960ff168152602001600260ff168152602001600160ff168152602001600460ff168152602001600560ff168152602001600360ff168152602001600060ff168152602001600760ff168152508152508152602001604051806101200160405280604051806101200160405280600060ff168152602001600260ff168152602001600760ff168152602001600560ff168152602001600060ff168152602001600460ff168152602001600060ff168152602001600060ff168152602001600060ff168152508152602001604051806101200160405280600060ff168152602001600060ff168152602001600060ff168152602001600360ff168152602001600760ff168152602001600060ff168152602001600060ff168152602001600060ff168152602001600460ff168152508152602001604051806101200160405280600360ff168152602001600060ff168152602001600060ff168152602001600060ff168152602001600060ff168152602001600060ff168152602001600860ff168152602001600060ff168152602001600060ff168152508152602001604051806101200160405280600460ff168152602001600760ff168152602001600060ff168152602001600960ff168152602001600560ff168152602001600860ff168152602001600060ff168152602001600360ff168152602001600660ff168152508152602001604051806101200160405280600260ff168152602001600660ff168152602001600860ff168152602001600760ff168152602001600160ff168152602001600060ff168152602001600060ff168152602001600460ff168152602001600960ff168152508152602001604051806101200160405280600060ff168152602001600060ff168152602001600060ff168152602001600060ff168152602001600060ff168152602001600260ff168152602001600060ff168152602001600160ff168152602001600860ff168152508152602001604051806101200160405280600060ff168152602001600860ff168152602001600360ff168152602001600060ff168152602001600960ff168152602001600060ff168152602001600460ff168152602001600060ff168152602001600060ff168152508152602001604051806101200160405280600760ff168152602001600160ff168152602001600060ff168152602001600060ff168152602001600060ff168152602001600060ff168152602001600960ff168152602001600060ff168152602001600260ff168152508152602001604051806101200160405280600060ff168152602001600060ff168152602001600060ff168152602001600060ff168152602001600060ff168152602001600560ff168152602001600060ff168152602001600060ff168152602001600760ff168152508152508152602001604051806101200160405280604051806101200160405280600060ff168152602001600060ff168152602001600060ff168152602001600060ff168152602001600060ff168152602001600660ff168152602001600060ff168152602001600060ff168152602001600060ff168152508152602001604051806101200160405280600060ff168152602001600060ff168152602001600760ff168152602001600260ff168152602001600060ff168152602001600060ff168152602001600860ff168152602001600060ff168152602001600060ff168152508152602001604051806101200160405280600960ff168152602001600060ff168152602001600660ff168152602001600860ff168152602001600060ff168152602001600060ff168152602001600060ff168152602001600160ff168152602001600060ff168152508152602001604051806101200160405280600360ff168152602001600060ff168152602001600060ff168152602001600760ff168152602001600060ff168152602001600060ff168152602001600060ff168152602001600260ff168152602001600960ff168152508152602001604051806101200160405280600060ff168152602001600060ff168152602001600060ff168152602001600060ff168152602001600060ff168152602001600060ff168152602001600060ff168152602001600060ff168152602001600060ff168152508152602001604051806101200160405280600460ff168152602001600060ff168152602001600060ff168152602001600560ff168152602001600060ff168152602001600060ff168152602001600060ff168152602001600760ff168152602001600060ff168152508152602001604051806101200160405280600660ff168152602001600560ff168152602001600060ff168152602001600160ff168152602001600060ff168152602001600060ff168152602001600060ff168152602001600060ff168152602001600060ff168152508152602001604051806101200160405280600860ff168152602001600060ff168152602001600160ff168152602001600060ff168152602001600560ff168152602001600060ff168152602001600360ff168152602001600060ff168152602001600060ff168152508152602001604051806101200160405280600760ff168152602001600960ff168152602001600260ff168152602001600060ff168152602001600060ff168152602001600060ff168152602001600060ff168152602001600060ff168152602001600460ff16815250815250815250600190600362000b5f92919062000bda565b5034801562000b6d57600080fd5b506040516200219138038062002191833981810160405281019062000b93919062000dca565b806000806101000a81548173ffffffffffffffffffffffffffffffffffffffff021916908373ffffffffffffffffffffffffffffffffffffffff1602179055505062000e44565b826003600902810192821562000c1f579160200282015b8281111562000c1e5782518290600962000c0d92919062000c32565b509160200191906009019062000bf1565b5b50905062000c2e919062000c87565b5090565b826009810192821562000c74579160200282015b8281111562000c735782518290600962000c6292919062000caf565b509160200191906001019062000c46565b5b50905062000c83919062000d50565b5090565b5b8082111562000cab576000818162000ca1919062000d78565b5060090162000c88565b5090565b826009601f0160209004810192821562000d3d5791602002820160005b8382111562000d0c57835183826101000a81548160ff021916908360ff160217905550926020019260010160208160000104928301926001030262000ccc565b801562000d3b5782816101000a81549060ff021916905560010160208160000104928301926001030262000d0c565b505b50905062000d4c919062000d8d565b5090565b5b8082111562000d74576000818162000d6a919062000dac565b5060010162000d51565b5090565b50806009019062000d8a919062000d50565b50565b5b8082111562000da857600081600090555060010162000d8e565b5090565b5060009055565b60008151905062000dc48162000e2a565b92915050565b60006020828403121562000ddd57600080fd5b600062000ded8482850162000db3565b91505092915050565b600062000e038262000e0a565b9050919050565b600073ffffffffffffffffffffffffffffffffffffffff82169050919050565b62000e358162000df6565b811462000e4157600080fd5b50565b61133d8062000e546000396000f3fe608060405234801561001057600080fd5b506004361061004c5760003560e01c80633e7c838f14610051578063663ea2e214610081578063c54d8fd31461009f578063e235ad2a146100cf575b600080fd5b61006b600480360381019061006691906108a3565b6100ff565b6040516100789190610d86565b60405180910390f35b6100896101a0565b6040516100969190610d08565b60405180910390f35b6100b960048036038101906100b49190610931565b6101c4565b6040516100c69190610d23565b60405180910390f35b6100e960048036038101906100e491906108a3565b6101dc565b6040516100f69190610d86565b60405180910390f35b600061010a82610298565b610149576040517f08c379a000000000000000000000000000000000000000000000000000000000815260040161014090610da1565b60405180910390fd5b610155858585856101dc565b610194576040517f08c379a000000000000000000000000000000000000000000000000000000000815260040161018b90610dc1565b60405180910390fd5b60019050949350505050565b60008054906101000a900473ffffffffffffffffffffffffffffffffffffffff1681565b6101cc610622565b6101d5826104fd565b9050919050565b60008060009054906101000a900473ffffffffffffffffffffffffffffffffffffffff1673ffffffffffffffffffffffffffffffffffffffff1663e235ad2a868686866040518563ffffffff1660e01b815260040161023e9493929190610d3f565b60206040518083038186803b15801561025657600080fd5b505afa15801561026a573d6000803e3d6000fd5b505050506040513d601f19601f8201168201806040525081019061028e9190610908565b9050949350505050565b6000806001905060005b60038110156104f2576001915060005b600182600381106102ec577f4e487b7100000000000000000000000000000000000000000000000000000000600052603260045260246000fd5b505060098110156104c95760005b60018360038110610334577f4e487b7100000000000000000000000000000000000000000000000000000000600052603260045260246000fd5b600902018260098110610370577f4e487b7100000000000000000000000000000000000000000000000000000000600052603260045260246000fd5b505060098110156104b757600183600381106103b5577f4e487b7100000000000000000000000000000000000000000000000000000000600052603260045260246000fd5b6009020182600981106103f1577f4e487b7100000000000000000000000000000000000000000000000000000000600052603260045260246000fd5b01816009811061042a577f4e487b7100000000000000000000000000000000000000000000000000000000600052603260045260246000fd5b602091828204019190069054906101000a900460ff1660ff1686828460096104529190611012565b61045c9190610fbc565b60518110610493577f4e487b7100000000000000000000000000000000000000000000000000000000600052603260045260246000fd5b6020020151146104a657600093506104b7565b806104b090611134565b90506102fa565b50806104c290611134565b90506102b2565b506001151582151514156104e15781925050506104f8565b806104eb90611134565b90506102a2565b50809150505b919050565b610505610622565b60006003444233866040516020016105209493929190610cbe565b6040516020818303038152906040528051906020012060001c61054391906111ab565b90506001816003811061057f577f4e487b7100000000000000000000000000000000000000000000000000000000600052603260045260246000fd5b60090201600980602002604051908101604052809291906000905b8282101561061657838201600980602002604051908101604052809291908260098015610602576020028201916000905b82829054906101000a900460ff1660ff16815260200190600101906020826000010492830192600103820291508084116105cb5790505b50505050508152602001906001019061059a565b50505050915050919050565b6040518061012001604052806009905b61063a610650565b8152602001906001900390816106325790505090565b604051806101200160405280600990602082028036833780820191505090505090565b600061068661068184610e06565b610de1565b9050808285604086028201111561069c57600080fd5b60005b858110156106cc57816106b28882610801565b84526020840193506040830192505060018101905061069f565b5050509392505050565b60006106e96106e484610e2c565b610de1565b905080828560208602820111156106ff57600080fd5b60005b8581101561072f5781610715888261088e565b845260208401935060208301925050600181019050610702565b5050509392505050565b600061074c61074784610e52565b610de1565b9050808285602086028201111561076257600080fd5b60005b858110156107925781610778888261088e565b845260208401935060208301925050600181019050610765565b5050509392505050565b60006107af6107aa84610e78565b610de1565b9050828152602081018484840111156107c757600080fd5b6107d28482856110c1565b509392505050565b600082601f8301126107eb57600080fd5b60026107f8848285610673565b91505092915050565b600082601f83011261081257600080fd5b600261081f8482856106d6565b91505092915050565b600082601f83011261083957600080fd5b6051610846848285610739565b91505092915050565b60008151905061085e816112d9565b92915050565b600082601f83011261087557600080fd5b813561088584826020860161079c565b91505092915050565b60008135905061089d816112f0565b92915050565b600080600080610b2085870312156108ba57600080fd5b60006108c887828801610801565b94505060406108d9878288016107da565b93505060c06108ea87828801610801565b9250506101006108fc87828801610828565b91505092959194509250565b60006020828403121561091a57600080fd5b60006109288482850161084f565b91505092915050565b60006020828403121561094357600080fd5b600082013567ffffffffffffffff81111561095d57600080fd5b61096984828501610864565b91505092915050565b600061097e8383610aa7565b60408301905092915050565b60006109968383610bac565b6101208301905092915050565b60006109af8383610c89565b60208301905092915050565b60006109c78383610caf565b60208301905092915050565b6109dc8161106c565b82525050565b6109f36109ee8261106c565b61117d565b82525050565b610a0281610edb565b610a0c8184610f5e565b9250610a1782610ea9565b8060005b83811015610a48578151610a2f8782610972565b9650610a3a83610f1d565b925050600181019050610a1b565b505050505050565b610a5981610ee6565b610a638184610f69565b9250610a6e82610eb3565b8060005b83811015610a9f578151610a86878261098a565b9650610a9183610f2a565b925050600181019050610a72565b505050505050565b610ab081610ef1565b610aba8184610f74565b9250610ac582610ebd565b8060005b83811015610af6578151610add87826109a3565b9650610ae883610f37565b925050600181019050610ac9565b505050505050565b610b0781610ef1565b610b118184610f7f565b9250610b1c82610ebd565b8060005b83811015610b4d578151610b3487826109a3565b9650610b3f83610f37565b925050600181019050610b20565b505050505050565b610b5e81610efc565b610b688184610f8a565b9250610b7382610ec7565b8060005b83811015610ba4578151610b8b87826109a3565b9650610b9683610f44565b925050600181019050610b77565b505050505050565b610bb581610f07565b610bbf8184610f95565b9250610bca82610ed1565b8060005b83811015610bfb578151610be287826109bb565b9650610bed83610f51565b925050600181019050610bce565b505050505050565b610c0c8161107e565b82525050565b6000610c1d82610f12565b610c278185610fb1565b9350610c378185602086016110d0565b80840191505092915050565b6000610c50601483610fa0565b9150610c5b82611287565b602082019050919050565b6000610c73600d83610fa0565b9150610c7e826112b0565b602082019050919050565b610c92816110aa565b82525050565b610ca9610ca4826110aa565b6111a1565b82525050565b610cb8816110b4565b82525050565b6000610cca8287610c98565b602082019150610cda8286610c98565b602082019150610cea82856109e2565b601482019150610cfa8284610c12565b915081905095945050505050565b6000602082019050610d1d60008301846109d3565b92915050565b6000610a2082019050610d396000830184610a50565b92915050565b6000610b2082019050610d556000830187610afe565b610d6260408301866109f9565b610d6f60c0830185610afe565b610d7d610100830184610b55565b95945050505050565b6000602082019050610d9b6000830184610c03565b92915050565b60006020820190508181036000830152610dba81610c43565b9050919050565b60006020820190508181036000830152610dda81610c66565b9050919050565b6000610deb610dfc565b9050610df78282611103565b919050565b6000604051905090565b600067ffffffffffffffff821115610e2157610e2061123a565b5b602082029050919050565b600067ffffffffffffffff821115610e4757610e4661123a565b5b602082029050919050565b600067ffffffffffffffff821115610e6d57610e6c61123a565b5b602082029050919050565b600067ffffffffffffffff821115610e9357610e9261123a565b5b610e9c82611269565b9050602081019050919050565b6000819050919050565b6000819050919050565b6000819050919050565b6000819050919050565b6000819050919050565b600060029050919050565b600060099050919050565b600060029050919050565b600060519050919050565b600060099050919050565b600081519050919050565b6000602082019050919050565b6000602082019050919050565b6000602082019050919050565b6000602082019050919050565b6000602082019050919050565b600081905092915050565b600081905092915050565b600081905092915050565b600081905092915050565b600081905092915050565b600081905092915050565b600082825260208201905092915050565b600081905092915050565b6000610fc7826110aa565b9150610fd2836110aa565b9250827fffffffffffffffffffffffffffffffffffffffffffffffffffffffffffffffff03821115611007576110066111dc565b5b828201905092915050565b600061101d826110aa565b9150611028836110aa565b9250817fffffffffffffffffffffffffffffffffffffffffffffffffffffffffffffffff0483118215151615611061576110606111dc565b5b828202905092915050565b60006110778261108a565b9050919050565b60008115159050919050565b600073ffffffffffffffffffffffffffffffffffffffff82169050919050565b6000819050919050565b600060ff82169050919050565b82818337600083830152505050565b60005b838110156110ee5780820151818401526020810190506110d3565b838111156110fd576000848401525b50505050565b61110c82611269565b810181811067ffffffffffffffff8211171561112b5761112a61123a565b5b80604052505050565b600061113f826110aa565b91507fffffffffffffffffffffffffffffffffffffffffffffffffffffffffffffffff821415611172576111716111dc565b5b600182019050919050565b60006111888261118f565b9050919050565b600061119a8261127a565b9050919050565b6000819050919050565b60006111b6826110aa565b91506111c1836110aa565b9250826111d1576111d061120b565b5b828206905092915050565b7f4e487b7100000000000000000000000000000000000000000000000000000000600052601160045260246000fd5b7f4e487b7100000000000000000000000000000000000000000000000000000000600052601260045260246000fd5b7f4e487b7100000000000000000000000000000000000000000000000000000000600052604160045260246000fd5b6000601f19601f8301169050919050565b60008160601b9050919050565b7f496e76616c6964205375646f6b7520426f617264000000000000000000000000600082015250565b7f496e76616c69642050726f6f6600000000000000000000000000000000000000600082015250565b6112e28161107e565b81146112ed57600080fd5b50565b6112f9816110aa565b811461130457600080fd5b5056fea2646970667358221220d6db9bee86361e0be963725c354620eac46ca441dcf83274b4d58187ad8da59264736f6c63430008040033",
  "linkReferences": {},
  "deployedLinkReferences": {}
}